:020000040800F2
:1000000000000520D92E0008210C0008230C000850
:10001000250C0008270C0008290C0008000000002F
:100020000000000000000000000000002B0C000891
:100030002D0C0008000000002F0C0008310C0008F7
:10004000292F0008292F0008292F0008292F000830
:10005000292F0008292F0008292F0008292F000820
:10006000292F0008292F0008292F0008292F000810
:10007000292F0008292F0008292F0008292F000800
:10008000292F0008292F0008292F0008292F0008F0
:10009000292F0008292F0008292F0008292F0008E0
:1000A000292F0008292F0008292F0008292F0008D0
:1000B000292F0008292F0008292F0008292F0008C0
:1000C000292F0008292F0008292F0008292F0008B0
:1000D000292F0008292F0008292F0008292F0008A0
:1000E000390C0008292F0008292F0008292F0008A3
:1000F000292F0008292F0008292F0008292F000880
:10010000292F0008292F0008292F0008292F00086F
:10011000292F0008292F0008292F0008292F00085F
:10012000292F0008292F0008292F0008292F00084F
:10013000292F0008292F0008292F0008292F00083F
:10014000292F0008292F0008292F0008292F00082F
:10015000292F0008292F0008292F0008292F00081F
:10016000292F0008292F0008292F0008292F00080F
:10017000292F0008292F0008292F0008292F0008FF
:10018000292F0008292F0008292F0008292F0008EF
:10019000292F0008292F0008292F0008292F0008DF
:1001A000292F0008292F0008292F0008000000002F
:1001B0000348044B834202D0034B03B118477047F6
:1001C0001000002010000020000000000548064933
:1001D0000B1AD90F01EBA301491002D0034B03B155
:1001E0001847704710000020100000200000000099
:1001F00010B5064C237843B9FFF7DAFF044B13B16F
:100200000448AFF300800123237010BD10000020CC
:10021000000000002C2F000808B5044B1BB1044956
:100220000448AFF30080BDE80840CFE700000000BD
:10023000140000202C2F000870B50D4E0D4D761BBC
:10024000B61006D0002455F8043B01349847A64266
:10025000F9D1094E094D761B02F068FEB61006D0A2
:10026000002455F8043B01349847A642F9D170BDEB
:10027000982F0008982F00089C2F0008982F00083E
:10028000830730B548D0541E002A3FD0CAB2034677
:1002900001E0013C3AD303F8012B9D07F9D1032C6F
:1002A0002DD9CDB245EA05250F2C45EA054536D9AD
:1002B000A4F1100222F00F0C03F1200EE6444FEAE5
:1002C000121C03F1100242E9045542E902551032B2
:1002D0007245F8D10CF1010214F00C0F03EB02127D
:1002E00004F00F0C13D0ACF1040323F00303043328
:1002F000134442F8045B9342FBD10CF003042CB18D
:10030000CAB21C4403F8012B9C42FBD130BD6446A9
:100310001346002CF4D1F9E703461446BFE71A460A
:10032000A446E0E753B94AB9002908BF00281CBF1A
:100330004FF0FF314FF0FF3000F074B9ADF1080C11
:100340006DE904CE00F006F8DDF804E0DDE90223F3
:1003500004B070472DE9F047089D04468E46002BF7
:100360004DD18A42944669D9B2FA82F252B101FA69
:1003700002F3C2F1200120FA01F10CFA02FC41EA79
:10038000030E94404FEA1C48210CBEFBF8F61FFAFE
:100390008CF708FB16E341EA034306FB07F1994299
:1003A0000AD91CEB030306F1FF3080F01F8199424C
:1003B00040F21C81023E63445B1AA4B2B3FBF8F026
:1003C00008FB103344EA034400FB07F7A7420AD9AD
:1003D0001CEB040400F1FF3380F00A81A74240F2D5
:1003E00007816444023840EA0640E41B00261DB140
:1003F000D4400023C5E900433146BDE8F0878B4275
:1004000009D9002D00F0EF800026C5E90001304633
:100410003146BDE8F087B3FA83F6002E4AD18B420D
:1004200002D3824200F2F980841A61EB03030120B7
:100430009E46002DE0D0C5E9004EDDE702B9FFDEA3
:10044000B2FA82F2002A40F09280A1EB0C014FEA4E
:100450001C471FFA8CFE0126200CB1FBF7F307FBAB
:10046000131140EA01410EFB03F0884208D91CEB4E
:10047000010103F1FF3802D2884200F2CB804346EB
:10048000091AA4B2B1FBF7F007FB101144EA0144CA
:100490000EFB00FEA64508D91CEB040400F1FF3159
:1004A00002D2A64500F2BB800846A4EB0E0440EA47
:1004B00003409CE7C6F12007B34022FA07FC4CEA50
:1004C000030C20FA07F401FA06F31C43F9404FEA43
:1004D0001C4900FA06F3B1FBF9F8200C1FFA8CFE58
:1004E00009FB181140EA014108FB0EF0884202FAAC
:1004F00006F20BD91CEB010108F1FF3A80F088806D
:10050000884240F28580A8F102086144091AA4B229
:10051000B1FBF9F009FB101144EA014100FB0EFEAA
:100520008E4508D91CEB010100F1FF346CD28E45D9
:100530006AD90238614440EA0840A0FB0294A1EB6A
:100540000E01A142C846A64656D353D05DB1B3EBC7
:10055000080261EB0E0101FA07F722FA06F3F140F7
:100560001F43C5E9007100263146BDE8F087C2F19E
:100570002003D8400CFA02FC21FA03F39140014316
:100580004FEA1C471FFA8CFEB3FBF7F007FB10364F
:100590000B0C43EA064300FB0EF69E4204FA02F4FB
:1005A00008D91CEB030300F1FF382FD29E422DD94E
:1005B000023863449B1B89B2B3FBF7F607FB163383
:1005C00041EA034106FB0EF38B4208D91CEB010103
:1005D00006F1FF3816D28B4214D9023E6144C91A83
:1005E00046EA004638E72E46284605E70646E3E693
:1005F0001846F8E64B45A9D2B9EB020864EB0C0E9D
:100600000138A3E74646EAE7204694E74046D1E7AB
:10061000D0467BE7023B614432E7304609E7644459
:10062000023842E7704700BF084A13780133DBB253
:1006300013701378DBB20649A1FB030101F0FE0041
:1006400000EB51015B1ADBB2137070472C000020E5
:10065000ABAAAAAA72B6FEE700B597B04422002161
:1006600005A8FFF70DFE0023009301930293039367
:1006700004934FF4007001F0A1FF002833D101F082
:100680008DFF1C4AD2F8903023F01803C2F8903046
:1006900014230593012307930B9300220C926022ED
:1006A0000D9202220F9210931193472312931392EB
:1006B00014920623159305A800F0B2FEA8B90F23E3
:1006C000009303230193002302934FF4806203926B
:1006D00004930221684601F0E1F940B901F05EFEA1
:1006E00017B05DF804FBFFF7B5FFFFF7B3FFFFF7A7
:1006F000B1FF00BF0010024008B500F0B9FDFFF7E0
:10070000ABFF00F05DF800F043F900F0F9F900F0FC
:100710005DF9284C63691A0402F40002DB4303F01C
:1007200080031343A361244E3378DBB2234D35F8A5
:10073000130080B200F0BEFD63691A0402F40002E7
:10074000DB4303F080031343A361A4F58064636972
:100750001A0402F40002DB4303F080031343A36195
:100760003378DBB235F8130080B200F0A3FD636983
:100770001A0402F40002DB4303F080031343A36175
:1007800063691A0402F08042DB4303F4804313439D
:10079000A3613378DBB235F8130080B200F08AFD34
:1007A00063691A0402F08042DB4303F4804313437D
:1007B000A361AEE7000800482C00002000000020E4
:1007C000F0B591B000230D930E930F930793089308
:1007D00009930A930B930C9303F1804303F50433BD
:1007E000DA6C42F00402DA64DA6C02F00402069277
:1007F000069ADA6C42F08002DA64DA6C02F0800267
:100800000592059ADA6C42F00202DA64DA6C02F0C0
:1008100002020492049ADA6C42F04002DA64DA6C62
:1008200002F040020392039A52494A6842F400726D
:100830004A60DA6C42F00102DA64DA6C02F001021A
:100840000292029ADA6C42F00802DA64DB6C03F07E
:1008500008030193019B484B4FF481429A6203F5D0
:10086000A05340229A62A3F5805380229A6203F13A
:10087000F8235A6922F0F002F02393FAA3F3002B35
:1008800071D0B3FA83F3022101FA03F313433B4A15
:1008900053614FF400540D9400220E9201238DF801
:1008A0003C308DF83D208DF83E300DA802F086F9E1
:1008B000334BDB6894FAA4F4002C56D0B4FA84F4D9
:1008C0006400032202FA04F423EA04044FF4005300
:1008D00093FAA3F22A4AD460126893FAA3F3002B86
:1008E00045D0B3FA83F35B00032101FA03F322EA54
:1008F00003034FF4005292FAA2F2214E33604FF4F8
:100900008143079301250895002409940A940B94C8
:1009100007A9194802F020FA2023079308940B94A2
:10092000184F07A9384602F017FA40230793089595
:1009300009940A940B9407A9384602F00DFA802313
:100940000793089509940A940B9407A9304602F07E
:1009500003FA0D4BDB680D4B83F828434FF480728C
:100960005A6011B0F0BD20238DE72024A8E7202392
:10097000B9E700BF007000400004004800000140DB
:10098000000800480018004800ED00E000E100E029
:1009900008B50B480B4B03600B4B43604FF0805383
:1009A00083600023C36003610C22426183610362A0
:1009B000436200F004FC00B908BDFFF74BFEFBE703
:1009C00030000020008000402433030008B50B48AD
:1009D0000B4B03604FF4E133436000238360C3603B
:1009E00003610C2242618361C3610362436200F0D0
:1009F000E6FB00B908BDFFF72DFEFBE7B4000020C1
:100A00000044004010B5ACB0044600212791289165
:100A100029912A912B918C2204A8FFF731FC23689D
:100A2000314A934204D0314A934232D02CB010BDA7
:100A30002023049304A801F079FA38BB2C4BDA6D1B
:100A400042F00102DA65DA6D02F001020092009ACA
:100A5000DA6C42F04002DA64DB6C03F0400301938D
:100A6000019B244A536843F4007353604FF4C073EE
:100A70002793022328930023299303232A930823EF
:100A80002B9327A91C4801F091FCCFE7FFF7E2FD6B
:100A9000D4E70223049304A801F048FA08BB144BDE
:100AA0009A6D42F400329A659A6D02F40032029215
:100AB000029ADA6C42F00802DA64DB6C03F0080395
:100AC0000393039B602327930223289300232993F6
:100AD00003232A9307232B9327A9084801F066FCD8
:100AE000A4E7FFF7B7FDDAE70080004000440040CC
:100AF000001002400070004000180048000C004840
:100B000008B50C484FF0A04303600623436002235E
:100B1000C36083610123C361002202624262836277
:100B20000263C36201F0F8FD00B908BDFFF792FD52
:100B3000FBE700BF3801002030B5ADB0044600210E
:100B40002791289129912A912B918C2204A8FFF7B3
:100B500097FB2368B3F1A04F01D02DB030BD4FF407
:100B6000005304934FF08063209301230593069371
:100B7000182307930223089309930A934FF48013D1
:100B80000B9304A801F0D2F9002840D1234CE36C68
:100B900043F00103E364E36C03F001030193019B61
:100BA0004FF4E85327930223289300252995032324
:100BB0002A930A232B9327A94FF0904001F0F6FBCC
:100BC0004FF4007327932895299527A94FF090405B
:100BD00001F0ECFBE36C43F48053E364E36C03F457
:100BE00080530293029BA36D13F0805F12D1A36D1B
:100BF00043F08053A365A36D03F080530393039BDD
:100C000001F024FDA36D23F08053A365A5E7FFF752
:100C100021FDBBE701F01AFD9FE700BF0010024075
:100C2000FEE7FEE7FEE7FEE7FEE770477047704726
:100C300008B500F02DFB08BD08B5064B5B6913F441
:100C4000005F00D108BD034B4FF400525A61FFF71B
:100C5000EBFCF7E70004014082B00A4B1A6E42F049
:100C600001021A661A6E02F001020092009A9A6D51
:100C700042F080529A659B6D03F080530193019B73
:100C800002B070470010024010B504460168836846
:100C90000269134342691343C269134308688E4AC9
:100CA000024013430B602268536823F44053E16809
:100CB0000B435360A1692268884B9A4201D0236A92
:100CC0001943936823F430630B4393602368844A89
:100CD000934210D0834A934221D0834A934237D023
:100CE000824A93425CD0824A93426BD07B4A9342C1
:100CF0007DD010223AE002F55842D2F8882002F066
:100D00000302032A09D8DFE802F002048706012261
:100D10002CE004222AE0082228E0102226E002F536
:100D2000E632D2F8882002F00C020C2A0ED8DFE856
:100D300002F0070D0D0D090D0D0D750D0D0D0B00BC
:100D4000002213E0042211E008220FE010220DE03F
:100D500002F5E432D2F8882002F03002202A5FD077
:100D60001AD8002A5ED0102A5ED104225B498B4239
:100D700076D0E069B0F5004F00F0A380082A00F2B9
:100D80000E81DFE812F0DD00F300DB000C01F6005D
:100D90000C010C010C01F900302A47D10822E5E7CB
:100DA00002F5E232D2F8882002F0C002802A3FD059
:100DB00004D8FAB3402A3FD10422D7E7C02A3DD154
:100DC0000822D3E702F5E032D2F8882002F440721C
:100DD000B2F5007F34D005D8A2B3B2F5807F33D10D
:100DE0000422C3E7B2F5407F30D10822BEE702F506
:100DF000C832D2F8882002F44062B2F5006F27D0E2
:100E000005D83AB3B2F5806F26D10422AEE7B2F529
:100E1000406F23D10822A9E70222A7E70222A5E713
:100E20000222A3E70022A1E710229FE710229DE7FC
:100E300002229BE7002299E7102297E7102295E70C
:100E4000022293E7002291E710228FE710228DE71C
:100E500002228BE7002289E7102287E7102285E72C
:100E6000082A00F28C80DFE802F0088A2A8A278AA2
:100E70008A8A05004FF4004003E000F0D9FE002804
:100E80007FD0626802EB420383427CD8B0EB023F22
:100E90007BD8010E00025308C0184FF0000341F147
:100EA0000001FFF73FFAA0F54072124B9A426ED84C
:100EB0002368D860002055E000F058FADFE70E48BC
:100EC000DFE7082A65D8DFE802F0193305643664E5
:100ED00064641D00084815E0F369FFEF00800040DE
:100EE000003801400044004000480040004C0040F1
:100EF00000500040FFFC0F000024F40000F098FEBA
:100F0000002848D06268530803EB4000B0FBF2F0C1
:100F1000A0F110024FF6EF739A423ED883B223F04D
:100F20000F03C0F3420018432368D860002019E083
:100F300000F090FEE4E700F019FAE1E71B4802E058
:100F400000F076FE68B3636800EB5300B0FBF3F08B
:100F5000A0F110024FF6EF739A4224D8236880B2B2
:100F6000D860002000236366A36610BD00F072FE07
:100F7000E8E700F0FBF9E5E74FF40040E3E7012084
:100F8000F0E70020EEE70120ECE70120EAE701208E
:100F9000E8E70120E6E70020E4E70120E2E701209E
:100FA000E0E70020DEE70120DCE700BF0024F400DA
:100FB000436A13F0010F06D00268536823F400332C
:100FC000816A0B435360436A13F0020F06D0026834
:100FD000536823F48033C16A0B435360436A13F0B0
:100FE000040F06D00268536823F48023016B0B437F
:100FF0005360436A13F0080F06D00268536823F465
:101000000043416B0B435360436A13F0100F06D04B
:101010000268936823F48053816B0B439360436AA7
:1010200013F0200F06D00268936823F40053C16BBD
:101030000B439360436A13F0400F0AD00268536871
:1010400023F48013016C0B435360036CB3F5801FD2
:101050000BD0436A13F0800F06D00268536823F464
:101060000023816C0B43536070470268536823F47C
:10107000C003416C0B435360EBE72DE9F843054691
:101080000F4616469946DDF820802C68E46937EA59
:1010900004030CBF4FF0010C4FF0000CB44553D1CA
:1010A000B8F1FF3FF1D000F0FFF8A0EB0900404598
:1010B0002DD8B8F1000F2AD02B681A6812F0040F4F
:1010C000E3D0DA6912F4006FDFD04FF400621A62E5
:1010D0002A6852E8003F23F4D07342E80031002927
:1010E000F6D12A6802F1080353E8003F23F0010318
:1010F000083242E800310029F3D12023AB67EB67C7
:10110000C5F88030002385F8743003201DE02A687C
:1011100052E8003F23F4D07342E800310029F6D1B1
:101120002A6802F1080353E8003F23F00103083264
:1011300042E800310029F3D12023AB67EB6700239D
:1011400085F87430032000E00020BDE8F88330B556
:1011500083B004460023C0F8803000F0A5F80546AF
:101160002268126812F0080F0DD123681B6813F073
:10117000040F16D12023A367E3670020206684F8BC
:10118000740003B030BD6FF07E430093034600222D
:101190004FF400112046FFF770FF0028E5D0032030
:1011A000EFE76FF07E4300932B4600224FF480015F
:1011B0002046FFF762FF0028DCD00320E1E768B398
:1011C00010B50446836F03B32423A3672268136812
:1011D00023F0010313602046FFF756FD012813D0CA
:1011E000636ABBB92268536823F490435360226852
:1011F000936823F02A0393602268136843F0010385
:1012000013602046FFF7A3FF10BD80F87430FFF78E
:10121000F9FBD9E72046FFF7CBFEE3E70120704753
:10122000104B1B780BB90120704710B504464FF4E2
:101230007A70B0FBF3F30C4A1068B0FBF3F001F0E6
:1012400057FA68B90F2C01D901200AE00022214683
:101250004FF0FF3001F014FA044B1C60002000E056
:10126000012010BD060000200C0000200800002016
:1012700010B5032001F0F2F90020FFF7D1FF10B103
:101280000124204610BD0446FFF7E6FCF9E7000004
:10129000034B1B78034A11680B441360704700BF6F
:1012A0000600002044060020014B1868704700BF6C
:1012B0004406002038B50446FFF7F6FF0546B4F1B2
:1012C000FF3F02D0044B1B781C44FFF7EDFF401B8F
:1012D000A042FAD338BD00BF0600002030B583B06D
:1012E0000446204B9B6D13F0805F0BD001F05EF93C
:1012F000B0F5007F17D0802C1FD82DD0702C2DD0AA
:1013000000211BE0174DAB6D43F08053AB65AB6D17
:1013100003F080530193019B01F048F9AB6D23F07A
:101320008053AB65E4E7802C03D9A02C03D90221BC
:1013300004E0002102E0012100E003210A4A1368D1
:1013400023F007030B431360136803F007038B427A
:1013500006D1002003B030BD0221EFE70121EDE707
:101360000120F7E70010024000200240284A93685D
:10137000D26802F0030213F00C030AD00C2B06D043
:10138000042B1FD0082B20D00020024610E0012A99
:10139000F6D11F4A126812F0080F0CD11C4AD2F87D
:1013A0009420C2F303221B4951F8222043B10020AC
:1013B0000C2B0DD07047164A1268C2F30312F2E7E5
:1013C0001046F5E714480022F2E714480022EFE740
:1013D0000F4BDB6803F00303022B16D0032B00D165
:1013E0000E4A0B49C868C0F30210431CC868C0F31A
:1013F000062002FB00F0B0FBF3F0CB68C3F34163BF
:1014000001335B00B0FBF3F0D4E7034AE9E700BF28
:1014100000100240602F00080024F40000127A003F
:10142000002800F02283F0B583B00446964B9D68F7
:1014300005F00C05DE6806F00306036813F0100FD4
:101440005AD0E5B10C2D18D0A369002B00F0BB8059
:101450008D4A136843F001031360FFF725FF074629
:10146000894B1B6813F0020F40F09A80FFF71CFFB6
:10147000C01B0228F4D9032002E3012EE4D1824BE1
:101480001B6813F0020F03D0A369002B00F0EF825A
:10149000206A7D4B1B6813F0080F5BD07A4B1B68EA
:1014A00003F0F00398425CD8774B1A6842F00802C8
:1014B0001A601A6822F0F002216A0A431A605A6818
:1014C00022F47F42E16942EA01225A60002D60D095
:1014D000FFF74CFF6C4B9B68C3F303136B4AD35C61
:1014E00003F01F03D8406A4B18606A4B1868FFF777
:1014F00097FE002840F0C482236813F0010F00F02B
:101500008180082D75D00C2D71D06368B3F5803FB4
:1015100000F09780B3F5A02F00F099805A4B1A681D
:1015200022F480321A601A6822F480221A606368FA
:10153000002B00F09980FFF7B7FE0746524B1B685F
:1015400013F4003F5ED1FFF7AFFEC01B6428F5D94E
:10155000032095E24C4BD3F894301B0903F0F003C1
:10156000A0E7FFF7BBFE002840F08382464B1A68D5
:1015700042F008021A601A6822F0F002216A0A4357
:101580001A605A6822F47F42E16942EA01225A60F5
:101590009EE7206AFFF7A2FE002899D001206FE2A3
:1015A000394B1A6842F008021A601A6822F0F002F9
:1015B000216A0A431A605A6822F47F42E16942EACA
:1015C00001225A6098E7304A136823F00103136040
:1015D000FFF76AFE07462C4B1B6813F0020F8BD0F7
:1015E000FFF762FEC01B0228F5D9032048E2032E54
:1015F0008BD1254B1B6813F4003F03D06368002B8D
:1016000000F03982236813F0020F58D0042D45D022
:101610000C2D41D0E368002B77D01B4A136843F4AC
:1016200080731360FFF740FE0646174B1B6813F4E8
:10163000806F61D1FFF738FE801B0228F5D90320A7
:101640001EE2114A136843F4803313606FE703F11D
:101650008043A3F53C331A6842F480221A601A686A
:1016600042F480321A6062E7FFF71EFE0746064B1F
:101670001B6813F4003FC5D0FFF716FEC01B64289B
:10168000F5D90320FCE100BF00100240482F0008FC
:101690000C00002008000020022EBBD1A74B1B68C5
:1016A00013F4806F03D0E368002B00F0E681A34AB7
:1016B000536823F0FE43216943EA016353602368C2
:1016C00013F0080F4CD063699BB39C4AD2F8943056
:1016D00043F00103C2F89430FFF7E6FD0646974B4E
:1016E000D3F8943013F0020F3AD1FFF7DDFD801BE1
:1016F0000228F4D90320C3E1904A536823F0FE4343
:10170000216943EA01635360D9E78C4A136823F4E3
:1017100080731360FFF7C8FD0646884B1B6813F4FF
:10172000806FCCD0FFF7C0FD801B0228F5D90320C5
:10173000A6E1824AD2F8943023F00103C2F8943033
:10174000FFF7B2FD06467D4BD3F8943013F0020F3D
:1017500006D0FFF7A9FD801B0228F4D903208FE1F2
:10176000236813F0040F7AD0744B9B6D13F0805FE5
:1017700036D1724B9A6D42F080529A659B6D03F0A0
:1017800080530193019B01266D4B1B6813F4807FEE
:1017900028D0A368012B39D0052B3FD0674BD3F855
:1017A000902022F00102C3F89020D3F8902022F07C
:1017B0000402C3F89020A368002B3DD0FFF774FD0E
:1017C00007465E4BD3F8903013F0020F46D1FFF777
:1017D0006BFDC01B41F288339842F2D903204FE1E0
:1017E0000026D1E7564A136843F480731360FFF76D
:1017F0005BFD0746524B1B6813F4807FC9D1FFF78E
:1018000053FDC01B0228F5D9032039E14B4AD2F819
:10181000903043F00103C2F89030CCE7474BD3F847
:10182000902042F00402C3F89020D3F8902042F0B8
:101830000102C3F89020BEE7FFF736FD07463F4B95
:10184000D3F8903013F0020F08D0FFF72DFDC01B26
:1018500041F288339842F2D9032011E1E6B92368B6
:1018600013F0200F35D0636AE3B1344AD2F89830D0
:1018700043F00103C2F89830FFF716FD06462F4BE0
:10188000D3F8983013F0020F23D1FFF70DFD801B22
:101890000228F4D90320F3E0284A936D23F0805303
:1018A0009365DCE7254AD2F8983023F00103C2F8AB
:1018B0009830FFF7F9FC0646204BD3F8983013F028
:1018C000020F06D0FFF7F0FC801B0228F4D903209A
:1018D000D6E0A36A002B00F0D280022B17D00C2D8B
:1018E00000F0D480154A136823F080731360FFF76B
:1018F000DBFC0446114B1B6813F0007F00F0AE8048
:10190000FFF7D2FC001B0228F4D90320B8E00B4BF0
:10191000DB6803F00301E26A914213D00C2D00F062
:10192000B180064B1B6813F0806F40F0AD80034B15
:101930001B6813F0805F2FD00120A1E0001002404F
:101940000070004003F07002216B0139B2EB011FFF
:10195000E4D103F4FE42616BB2EB012FDED103F060
:101960007842A16BB2EBC16FD8D103F4C001E26B36
:101970005208013AB1EB425FD0D103F0C063226C50
:101980005208013AB3EB426FC8D1414B1B6813F0C8
:10199000007F49D0002073E03D4A136823F0807334
:1019A0001360FFF781FC0546394B1B6813F0007F7D
:1019B00006D0FFF779FC401B0228F5D903205FE031
:1019C000334AD36833491940E36A206B013843EA4C
:1019D0000013606B43EA0023E06B4008013843EAE0
:1019E0004053206C4008013843EA4063A06B43EA4F
:1019F000C0630B43D360136843F080731360D368F4
:101A000043F08073D360FFF74FFC0446204B1B6804
:101A100013F0007F06D1FFF747FC001B0228F5D921
:101A200003202DE000202BE0194B1A6842F0807251
:101A30001A60DA6842F08072DA60FFF735FC04461B
:101A4000134B1B6813F0007F06D1FFF72DFC031B1F
:101A5000022BF5D9032013E0002011E00C4AD168D5
:101A60000D4B0B40D36000200AE00120704701209D
:101A700006E0012004E0012002E0012000E0002057
:101A800003B0F0BD0120FBE70120F9E70120F7E7F3
:101A9000001002408C809D01FCFFEEFE002800F04B
:101AA000AF8070B50D460446594B1B6803F0070321
:101AB0008B420BD2564A136823F007030B43136083
:101AC000136803F007038B4240F09C80236813F0F7
:101AD000020F0CD0A2684F4B9B6803F0F0039A42B0
:101AE00005D94C498B6823F0F0031A438A602368B8
:101AF00013F0010F39D06368032B09D0022B26D0D5
:101B000063BB444A126812F0020F06D1012076E04E
:101B1000404A126812F0007F76D03E498A6822F06F
:101B2000030213438B60FFF7BFFB0646394B9B68EC
:101B300003F00C036268B3EB820F16D0FFF7B4FB1F
:101B4000801B41F288339842F0D9032057E0314A94
:101B5000126812F4003FE0D1012050E02D4A1268D3
:101B600012F4806FD9D1012049E0236813F0020FED
:101B70000CD0A268274B9B6803F0F0039A4205D271
:101B800024498B6823F0F0031A438A60204B1B68BA
:101B900003F00703AB420AD91D4A136823F0070379
:101BA0002B431360136803F00703AB422ED1236865
:101BB00013F0040F06D0174A936823F4E063E1683A
:101BC0000B439360236813F0080F07D0114A936802
:101BD00023F46053216943EAC1039360FFF7C6FB16
:101BE0000C4B9B68C3F303130B4AD35C03F01F0336
:101BF000D8400A4B18600A4B1868FFF711FB70BDFC
:101C0000012070470120FAE70120F8E70120F6E7FC
:101C10000020024000100240482F00080C00002065
:101C200008000020014B1868704700BF0C0000201E
:101C300008B5FFF7F7FF054B9B68C3F30223044A7F
:101C4000D35C03F01F03D84008BD00BF0010024062
:101C5000582F000808B5FFF7E5FF054B9B68C3F355
:101C6000C223044AD35C03F01F03D84008BD00BF61
:101C700000100240582F0008F8B504460F46584B94
:101C8000DB6813F0030F18D0554BDB6803F0030338
:101C90000268934202D001252846F8BD002A00F0D0
:101CA0009D804F4BDB68C3F30213013342689342BC
:101CB00001D00125F0E7002509E00368022B56D08A
:101CC000032B5BD0012B41D00125002DE4D1444AE8
:101CD000136823F080631360FFF7E6FA0646404B73
:101CE0001B6813F0006F05D0FFF7DEFA831B022B91
:101CF000F5D90325002DCFD1002F4DD138490B69DF
:101D000023F0784323F4FE43A068E268D20642EA57
:101D1000002213430B61324A136843F0806313605F
:101D2000FFF7C2FA06462E4B1B6813F0006F05D171
:101D3000FFF7BAFA831B022BF5D90325002DABD18F
:101D4000274A1369A1690B431361A5E7244A126866
:101D500012F0020F1ED02248C26822F0730261689E
:101D6000013943EA01131343C3600025ADE71C4A60
:101D7000126812F4806FEED10125A6E7184A1268A6
:101D800012F4003FE7D1164A126812F4802FE2D114
:101D900001259AE7012598E7012F0FD01048026925
:101DA00022F0C06222F4FE42A16863695B08013B35
:101DB0005B0643EA012313430361ACE70848026969
:101DC00022F4C00222F4FE42A16823695B08013BB1
:101DD0005B0543EA0123134303619CE701255BE7AD
:101DE00000100240F8B504460F464F4BDB6813F075
:101DF000030F18D04C4BDB6803F0030302689342D7
:101E000002D001252846F8BD002A00F08B80464B01
:101E1000DB68C3F3021301334268934201D001250A
:101E2000F0E7002509E00368022B56D0032B5BD0B6
:101E3000012B41D00125002DE4D13B4A136823F04A
:101E400080531360FFF730FA0646374B1B6813F0D8
:101E5000005F05D0FFF728FA831B022BF5D9032575
:101E6000002DCFD1002F4DD12F494B6923F078435E
:101E700023F4FE43A068E268D20642EA002213433C
:101E80004B61294A136843F080531360FFF70CFA43
:101E90000646254B1B6813F0005F05D1FFF704FAD7
:101EA000831B022BF5D90325002DABD11E4A5369A4
:101EB00061690B435361A5E71B4A126812F0020FD8
:101EC0001ED01948C26822F073026168013943EAE2
:101ED00001131343C3600025ADE7134A126812F4DF
:101EE000806FEED10125A6E70F4A126812F4003F79
:101EF000E7D10D4A126812F4802FE2D101259AE74A
:101F0000012598E70848426922F0C06222F4FE42A7
:101F1000A16823695B08013B5B0643EA0123134385
:101F20004361AEE701256DE7001002402DE9F04165
:101F300082B00446036813F4006F33D0836EB3F5A8
:101F4000000F1FD00CD823B3B3F5800F05D10021AB
:101F50002030FFF747FF064620E001273E4623E0FA
:101F6000B3F5400F0BD10026604AD2F8883023F435
:101F70004003A16E0B43C2F88830002714E001270C
:101F80003E4611E0594AD36843F48033D3600026BB
:101F9000EAE700210430FFF76FFE0646002EE3D08B
:101FA000374601E000273E46236813F4805F30D0B7
:101FB000E36EB3F1007F1FD00DD81BB3B3F1807F68
:101FC00006D1002104F12000FFF70CFF064605E0D2
:101FD00001273E461DE0B3F1407F0AD1C6B9434A0E
:101FE000D2F8883023F04073E16E0B43C2F888309A
:101FF0000FE001273E460CE03C4AD36843F48033AF
:10200000D360EBE70021201DFFF736FE0646E5E72B
:102010003746236813F4003F71D0344B9B6D13F0A7
:10202000805F4ED1314B9A6D42F080529A659B6D24
:1020300003F080530193019B4FF001082C4A136871
:1020400043F480731360FFF72FF90546284B1B6894
:1020500013F4807F05D1FFF727F9401B0228F5D93B
:102060000326002E46D1214BD3F8903013F4407351
:1020700016D0D4F888209A4212D01C4AD2F8903058
:1020800023F44073D2F8901041F48031C2F89010DC
:10209000D2F8901021F48031C2F89010C2F890303C
:1020A00013F0010F10D1002E40F035810F4AD2F805
:1020B000903023F44073D4F888100B43C2F890306A
:1020C00019E04FF00008B9E7FFF7EEF80546074BB7
:1020D000D3F8903013F0020FE5D1FFF7E5F8401B7D
:1020E00041F288339842F2D90326DCE7001002401F
:1020F000007000403746B8F1000F40F00E812368B1
:1021000013F0010F08D0A44AD2F8883023F003035B
:10211000A16B0B43C2F88830236813F0020F08D07C
:102120009D4AD2F8883023F00C03E16B0B43C2F8D0
:102130008830236813F0040F08D0974AD2F888300B
:1021400023F03003216C0B43C2F88830236813F06E
:10215000080F08D0904AD2F8883023F0C003616C91
:102160000B43C2F88830236813F0100F08D08A4A56
:10217000D2F8883023F44073A16C0B43C2F8883046
:10218000236813F0200F08D0834AD2F8883023F454
:102190004063E16C0B43C2F88830236813F4007F7E
:1021A00008D07D4AD2F8883023F44023216E0B43B7
:1021B000C2F88830236813F4806F08D0764AD2F8CA
:1021C000883023F44013616E0B43C2F888302368D3
:1021D00013F0400F08D0704AD2F8883023F44053EF
:1021E000216D0B43C2F88830236813F0800F08D0AC
:1021F000694AD2F8883023F44043616D0B43C2F83A
:102200008830236813F4807F08D0634AD2F888307E
:1022100023F44033A16D0B43C2F88830236813F4D4
:10222000801F08D05C4AD2F89C3023F00303E16D94
:102230000B43C2F89C30236813F4005F0FD0564A5A
:10224000D2F8883023F04063216F0B43C2F8883006
:10225000236FB3F1006F66D0B3F1806F68D023684D
:1022600013F4002F0FD04C4AD2F8883023F040638B
:10227000616F0B43C2F88830636FB3F1006F5FD0BA
:10228000B3F1806F61D0236813F4802F0FD0424ADE
:10229000D2F8883023F04063A16F0B43C2F8883036
:1022A000A36FB3F1006F58D0B3F1806F5AD0236899
:1022B00013F4804F0FD0384AD2F8883023F04053BF
:1022C000E16F0B43C2F88830E36FB3F1805F51D008
:1022D000B3F1005F56D0236813F4004F09D02E4AA3
:1022E000D2F8883023F08043D4F880100B43C2F832
:1022F0008830236813F4803F09D0274AD2F8883009
:1023000023F00043D4F884100B43C2F888303846D9
:1023100002B0BDE8F0813746EDE61F4A936D23F029
:1023200080539365EBE6D36843F48013D36096E75C
:102330000121201DFFF7A0FC002890D007468EE762
:10234000D36843F48013D3609DE70121201DFFF77C
:1023500093FC002897D0074695E7D36843F4801391
:10236000D360A4E70121201DFFF786FC00289ED042
:1023700007469CE70221201DFFF77EFC0028AAD01B
:102380000746A8E7022104F12000FFF72BFD0028F3
:10239000A1D007469FE700BF00100240024A136821
:1023A00043F004031360704700100240F0B583B09F
:1023B000002362E085685E000324B44025EA04053A
:1023C000CC68B4402C438460446824EA0C0C4C680C
:1023D000C4F300149C4044EA0C0444605FE0DD0850
:1023E000083550F8256003F007044FEA840C0F24E9
:1023F00004FA0CF426EA040E0C6904FA0CF444EA1C
:102400000E0440F8254061E0072400E0002404FAAF
:102410000EF42C430CF1020C5C4D45F82C405C4C46
:10242000A568D44325EA02064F6817F4801F01D03F
:1024300042EA0506564DAE60ED6804EA05064F68AF
:1024400017F4001F01D042EA0506514DEE606D6899
:1024500004EA05064F6817F4003F01D042EA05067A
:102460004B4D6E602D682C404E6816F4803F01D0B5
:1024700042EA0504464A146001330A6832FA03F45A
:1024800000F081804FF0010C0CFA03FC1CEA020200
:10249000F2D04C6804F00304013C012C8AD94C684A
:1024A00004F00304032C0CD0C4685D004FF0030C4F
:1024B0000CFA05FC24EA0C0C8C68AC4044EA0C04D1
:1024C000C4604C6804F00304022C88D004684FEA0E
:1024D000430E4FF0030C0CFA0EFC24EA0C0C4C6873
:1024E00004F0030404FA0EF444EA0C0404604C689B
:1024F00014F4403FC0D0274C256E45F001052566F9
:10250000246E04F001040194019C4FEA930C0CF139
:1025100002051E4C54F8255003F003044FEA840EC4
:102520000F2404FA0EF425EA0405B0F1904F3FF4AD
:102530006DAF194CA0421AD004F58064A04218D0A7
:1025400004F58064A04216D004F58064A04214D043
:1025500004F58064A04212D004F58064A04210D03B
:1025600004F58064A0423FF44FAF08244FE70124F4
:102570004DE702244BE7032449E7042447E70524F9
:1025800045E7062443E703B0F0BD00BF000001406B
:10259000000401400010024000040048024A136891
:1025A00043F480731360704700700040024B18685A
:1025B00000F4C060704700BF00700040B0F5007FBD
:1025C0000FD01F4B1B6803F4C063B3F5806F34D08A
:1025D0001B4A136823F4C06343F480631360002034
:1025E0007047174B1B6803F4C063B3F5007F20D01E
:1025F000134A136823F4C06343F400731360114B50
:102600001B68322202FB03F30F4AA2FB03239B0C3D
:10261000013300E0013B0A4A526912F4806F01D095
:10262000002BF7D1064B5B6913F4806F03D10020B8
:10263000704700207047032070470020704700BF9C
:10264000007000400C00002083DE1B43024A5368E8
:1026500043F480635360704700700040074AD368BA
:1026600023F4E0631B041B0C000200F4E06003434E
:1026700043F0BF6343F40033D360704700ED00E0E4
:1026800000B5194BDB68C3F30223C3F1070CBCF19F
:10269000040F28BF4FF0040C03F1040EBEF1060F27
:1026A00018D9033B4FF0FF3E0EFA0CFC21EA0C0157
:1026B00099400EFA03F322EA0303194300280BDBC7
:1026C0000901C9B200F1604000F5614080F80013D3
:1026D0005DF804FB0023E5E700F00F000901C9B233
:1026E000024B1954F4E700BF00ED00E014ED00E0E8
:1026F0000138B0F1807F0BD24FF0E0235861054ADA
:10270000F02182F823100020986107221A61704797
:102710000120704700ED00E070B58AB0002800F09D
:1027200097800546046890F8BD343BB3032385F8D1
:10273000BD34E36B13F4807F01D100232B61286843
:1027400000F0E0F82C4654F8106BEC460FCCACE8E7
:102750000F000FCCACE80F0094E803008CE80300F6
:102760002B1D0ECB304600F0B1F8044658B10223C1
:1027700085F8BD34012420460AB070BD80F8BC3411
:10278000FEF7DAF9D2E70021286800F0DBF92346EA
:1027900016E003EBC30205EB8202012182F83D1033
:1027A00082F83C30A2F84430002182F84010916455
:1027B000D16403EBC30205EB820251650133DBB246
:1027C00069688B42E5D316E004EBC40305EB830391
:1027D000002283F87D2283F87C4283F88022C3F8AC
:1027E0008822C3F88C2204EBC40305EB8303C3F8EF
:1027F00094220134E4B2A142E6D82C4654F8106B7E
:10280000EC460FCCACE80F000FCCACE80F0094E81E
:1028100003008CE803002B1D0ECB304600F0CEF8F1
:10282000044660B9002385F83830012385F8BD34AB
:102830006B6A012B08D0286800F072F99BE702232D
:1028400085F8BD34012496E7284600F003F8F2E746
:10285000012490E7034602680121C0F8001500201A
:1028600083F8F404936943F000639361536D43F07C
:10287000805343F0030353657047000082B0002388
:102880000193019B01330193019A0F4B9A4215D892
:102890000369002BF5DA00230193036943F0010378
:1028A0000361019B01330193019A074B9A4208D8B7
:1028B000036913F0010FF4D1002000E0032002B0FF
:1028C00070470320FBE700BF400D030084B010B544
:1028D00004460DF10C0C8CE80E00C36843F0400375
:1028E000C360FFF7CBFF0C9B3BB9A36B43F4803372
:1028F000A363BDE8104004B07047A36B23F480339A
:10290000A363F6E7836823F0010383600020704728
:1029100082B000230193019B01330193019A0F4B75
:102920009A4215D80369002BF5DA00230193890137
:1029300041F020010161019B01330193019A074B92
:102940009A4208D8036913F0200FF4D1002000E068
:10295000032002B070470320FBE700BF400D0300D7
:1029600082B000230193019B01330193019A0E4B26
:102970009A4213D80369002BF5DA00230193102340
:102980000361019B01330193019A074B9A4208D8D6
:10299000036913F0100FF4D1002000E0032002B00F
:1029A00070470320FBE700BF400D0300D0F800385C
:1029B0001943C0F8001800207047000084B02DE9CA
:1029C000F041044607A880E80E00002306E003F16A
:1029D000400204EB82020021516001330E2BF6D934
:1029E000119F8FBBD4F8043843F00203C4F80438B5
:1029F000A36B23F40013A363236843F04003236015
:102A0000236843F0800323600023C4F8003E04F5EC
:102A10000065D4F80038C4F8003803212046FFF7D9
:102A2000C5FF10212046FFF773FF804608B14FF025
:102A300001082046FFF794FF08B14FF0010800237A
:102A40002B616B61EB610FE0A36B43F40013A36395
:102A5000DAE7C3B94FF00060C2F8000900220A614A
:102A60004FF67F328A6001330799994210D904EBFF
:102A7000431202F51061D2F800090028E9DB0020BA
:102A8000C2F80009EAE74FF09040C2F80009E5E714
:102A900000230AE0C3B14FF0904CC2F800CB0022F3
:102AA00002614FF67F3282600133994211D904EB03
:102AB000431202F53060D2F8006B002EEADB4FF0D3
:102AC000000CC2F800CBEAE74FF0006CC2F800CB74
:102AD000E5E72B6923F480732B610023A3616FF07A
:102AE00080436361A36943F01003A361A2690B4BA8
:102AF0001343A3610D9B1BB1A36943F00803A361BA
:102B0000012F04D04046BDE8F04104B07047A369EE
:102B100043F0804343F00403A361F3E700383C80B3
:102B2000D0F8003E23F00303C0F8003ED0F804388C
:102B300043F00203C0F8043800207047406900F0F9
:102B40000100704738B50546C36823F0C043C36031
:102B5000012913D019BBC36843F08043C36000242C
:102B60000120FEF7A7FB01342846FFF7E7FF08B175
:102B7000312CF5D9322C14D0002038BDC36843F075
:102B80000053C36000240120FEF794FB0134284663
:102B9000FFF7D4FF0128EDD0312CF4D9EAE701206A
:102BA000EBE70120E9E70000034AD2F8883043F45C
:102BB0007003C2F88830704700ED00E00346027AE7
:102BC000002A00F0B08010B4006800283FD05A7A84
:102BD000012A1DD0022A26D062B101209A7A002A49
:102BE00035D0022A3FD0032A48D0012A25D040F010
:102BF00002002CE002F1804202F58232516821EAA3
:102C00000000506019681068014311600020E5E77A
:102C1000504A116821EA00001060196850680143A9
:102C200051600020DAE74B4A1168084310601968C8
:102C30005068014351600020D0E71C68454AD168C4
:102C400021EA0401D16019689468214391605A68AF
:102C5000002A32D0597A012932D002293AD0B9B1AA
:102C600040F0040020E01C683A4A916821EA04011F
:102C700091601968D4682143D160E8E71968354A42
:102C80009468214391601968D4682143D160DEE7DC
:102C900001F1804101F582314C6A24EA02024A6264
:102CA0005A680C6A22430A629A7A32B1022A25D003
:102CB000032A2ED0012A16D001205DF8044B70475C
:102CC00024490C6A24EA02020A625A684C6A2243C6
:102CD0004A62E9E71F490C6A22430A625A684C6A51
:102CE00022434A62E0E75C681A4AD16A21EA040199
:102CF000D1625B68916A0B439362DEE75C68154AB8
:102D0000916A21EA040191625B68D16A0B43D36244
:102D1000D3E759680F4A946A214391625B68D16A8C
:102D20000B43D362C9E700680A4A116821EA00012F
:102D300011601868516821EA000151605868116AF1
:102D400021EA000111625968536A23EA01035362C0
:102D50000020704700040140F0B40A6892FAA2F221
:102D600012B1B2FA82F24EE020224CE08E68856801
:102D700093FAA3F4E4B1B4FA84F464004FF0030CC2
:102D80000CFA04F425EA040593FAA3F494B1B4FA16
:102D900084F4640006FA04F42C4384600D68CE6861
:102DA000446824EA050406FB05F52C43446039E039
:102DB0002024E2E72024ECE720243BE0202446E026
:102DC000202456E02024A40006FA04F42C430462D4
:102DD0004E68056893FAA3F4002C75D0B4FA84F415
:102DE00064004FF0030C0CFA04F425EA040493FA8F
:102DF000A3F3002B6AD0B3FA83F35B0006FA03F364
:102E00002343036001320B6833FA02F460D04FF0C1
:102E1000010C0CFA02FC1CEA0303F3D04C68013CE1
:102E2000012CA3D90E69C56893FAA3F4002CC3D072
:102E3000B4FA84F464004FF0030C0CFA04F425EAAD
:102E4000040593FAA3F4002CB8D0B4FA84F4640017
:102E500006FA04F42C43C4604C68022CB8D1FF2B52
:102E600014D84E69056A93FAA3F4002CA8D0B4FADA
:102E700084F4A4000F2707FA04F425EA040593FA62
:102E8000A3F4002C9ED0B4FA84F49CE74F69466A00
:102E90001C0A94FAA4F59DB1B5FA85F5AD004FF082
:102EA0000F0C0CFA05F526EA050594FAA4F44CB1CA
:102EB000B4FA84F4A40007FA04F42C43446287E7CC
:102EC0002025EBE72024F5E7202489E7202394E759
:102ED0000020F0BC70470000DFF834D0FFF764FE3C
:102EE0000C480D490D4A002302E0D458C450043365
:102EF000C4188C42F9D30A4A0A4C002301E013603B
:102F00000432A242FBD3FDF797F9FDF7F5FBFEE78C
:102F1000000005200000002010000020A82F00085D
:102F20001000002048060020FEE70000F8B500BFB2
:102F3000F8BC08BC9E467047F8B500BFF8BC08BC9A
:082F40009E46704700000000EE
:102F48000000000000000000010203040607080951
:102F58000000000001020304A0860100400D0300E8
:102F6800801A060000350C0040420F0080841E00C5
:102F780000093D0000127A000024F40000366E01BA
:082F88000048E801006CDC02C6
:082F9000C4D3FF7F0100000023
:082F980019020008000000000E
:082FA000F1010008000000002F
:102FA8006F004D01E70301001000000000093D001B
:0400000508002ED9E8
:00000001FF
